:020000040800F2
:10000000C0070020650100080D0B0008150A000854
:1000100000000000000000000000000000000000E0
:10002000000000000000000000000000210B00089C
:1000300000000000000000000F0B0008610B00082A
:100040007701000800000000770100087701000830
:1000500077010008A5030008770100087701000870
:100060000000000077010008770100087701000810
:100070007701000877010008770100080000000000
:100080007701000800000000000000007701000870
:1000900000000000770100087701000877010008E0
:1000A0007701000877010008770100087701000850
:1000B00077010008000000000000000000000000C0
:1000C00000F002F800F03EF80CA030C80838241800
:1000D0002D18A246671EAB4654465D46AC4201D180
:1000E00000F030F87E460F3E0FCCB6460126334274
:1000F00000D0FB1AA246AB4633431847EC10000071
:100100000C110000103A02D378C878C1FAD852070F
:1001100001D330C830C101D504680C6070470000BD
:100120000023002400250026103A01D378C1FBD813
:10013000520700D330C100D50B6070471FB51FBDFB
:1001400010B510BD00F0FAF81146FFF7F7FF00F008
:100150005BFE00F012F903B4FFF7F2FF03BC00F0FE
:1001600019F900000748804707480047FEE7FEE707
:10017000FEE7FEE7FEE7FEE704480549054A064BB1
:1001800070470000C50B0008C1000008C001002036
:10019000C0070020C0030020C003002001E004C00D
:1001A000091F0429FBD28B0701D50280801CC907D7
:1001B00000D00270704700290BD0C30702D0027034
:1001C000401C491E022904D3830702D50280801CEB
:1001D000891EE3E70022EEE70022DFE700220309A1
:1001E0008B422CD3030A8B4211D300239C464EE052
:1001F00003460B433CD4002243088B4231D303090E
:100200008B421CD3030A8B4201D394463FE0C309BF
:100210008B4201D3CB01C01A524183098B4201D3D7
:100220008B01C01A524143098B4201D34B01C01AC2
:10023000524103098B4201D30B01C01A5241C3083A
:100240008B4201D3CB00C01A524183088B4201D3A9
:100250008B00C01A524143088B4201D34B00C01A95
:100260005241411A00D201465241104670475DE0AA
:10027000CA0F00D04942031000D34042534000222D
:100280009C4603098B422DD3030A8B4212D3FC22D6
:10029000890112BA030A8B420CD3890192118B4255
:1002A00008D3890192118B4204D389013AD092116B
:1002B00000E08909C3098B4201D3CB01C01A524126
:1002C00083098B4201D38B01C01A524143098B42EF
:1002D00001D34B01C01A524103098B4201D30B01D8
:1002E000C01A5241C3088B4201D3CB00C01A5241FD
:1002F00083088B4201D38B00C01A5241D9D24308E4
:100300008B4201D34B00C01A5241411A00D2014620
:10031000634652415B10104601D34042002B00D58A
:100320004942704763465B1000D3404201B500204C
:10033000C046C04602BD704770477047754600F022
:1003400025F8AE46050069465346C008C0008546FC
:1003500018B020B5FFF710FF60BC00274908B6466B
:100360000026C0C5C0C5C0C5C0C5C0C5C0C5C0C5C4
:10037000C0C5403D49008D46704710B50446C04693
:10038000C0462046FFF7E7FE10BD0000004870475A
:100390005C01002001491820ABBEFEE726000200E8
:1003A0007047000010B50748C168890702D4016989
:1003B000890705D50221C1600161084600F03CF9BA
:1003C00010BD00000018024003494A6901231B04C4
:1003D000184302434A61704700200240044A5069B2
:1003E000044BC90018400143034801435161704761
:1003F0000020024007E0FFFF0200010030B5054980
:100400004C6901252C434C610260BFF36F8F436040
:1004100030BD00000020024030B50B4C0023626963
:100420000125AD042A436261EFF3108272B620C940
:100430005B1C20C0DBB2402BF9D32069C003FCD485
:1004400082F3108830BD000000200240F8B5054658
:1004500000F0ECF9471901263604114C03E000F0D6
:10046000E5F9B84214D220693042F8D121690D482B
:1004700001400D48206103D00C4841600120F8BDC7
:1004800000F0D4F9451905E000F0D0F9A84201D3F5
:100490000320F8BD20694003F6D40020F8BD000019
:1004A00000200240FA830000FB830000400100208E
:1004B000F0B5002383704370094D03701946072679
:1004C0004A076C5C520FB21A9440CA08875C491CF8
:1004D0003C43C9B284541829F2D302480370F0BDDA
:1004E000B00000200400002070B5044600F09EF922
:1004F0000546601C02D004480078241800F096F9E4
:10050000401BA042FAD370BD18000020F8B51F4E62
:10051000044630780F4601280AD0012030700020B0
:1005200070607D20C000FFF791FF002802D029E015
:100530000220F8BD042161602268042A03D0491F0B
:100540003960A56814E00846FFF73EFF7D20C00033
:10055000FFF77CFF16E029466068FFF73FFF7D202C
:10056000C000FFF773FF002801D03D6005E06D1C5F
:10057000E268A1688918A942EDD805494A690223B1
:100580009A434A6100213170F8BD0000400100200B
:1005900000200240054901204A69C3071A434A6105
:1005A0004969002900DA002070470000002002405D
:1005B000F0B51FB4144C06462078154601280AD021
:1005C0000120207000277D20C0006760FFF73EFFFC
:1005D000002803D010E0022005B0F0BD012E0DD0A0
:1005E00029460198FFF718FF7D20C000FFF72EFF76
:1005F00006494A69B2434A612770EDE72A46039BE0
:100600000198FFF7FBFEEFE74001002000200240C9
:10061000064900204A69002A07DA054A8A60054A25
:100620008A604969002900DA0120704700200240F1
:1006300023016745AB89EFCD70B5022835D1052080
:100640000221000700F0E6F8184C012803D000F062
:1006500079FAA08027E000F075FA6080A388002175
:10066000C82B1ED9124A90421BD21D225A43012583
:10067000824201D2E58016E0E288012A13D1627835
:10068000182A0AD25900814201D3012000E000203B
:1006900008498854521C627005E06170E180257041
:1006A00001E0E180617000F03DFA70BD04000020BF
:1006B000983A0000B0000020F0B5002303249AE02F
:1006C0002A4601259D402A407ED00E79B607B60FF6
:1006D000012E01D0022E16D186682746B4465E0050
:1006E000B646B7406646BE43B446CF687646B74086
:1006F0006646374387604668AE430D79ED06ED0FD9
:100700009D40354345600D79ED43AD0708D0C56880
:100710005F002646BE40B5438E68BE402E43C6608D
:100720000D79AD07AD0F022D0ED1DD08AD002D18EE
:10073000AC462D6A5E07F60E0F27B740BD430F6922
:10074000B7402F4365462F6205685F002646BE40CE
:10075000B5430E79B607B60FBE402E4306604D680E
:10076000AD03AD0F46D09E08264DB6007519AC46B8
:100770002D6E9E07F60E0F27B740BD4305273F0796
:10078000B84201D100270FE01F4FB84201D1012725
:100790000AE01E4FB84201D1022705E01C4FB842C3
:1007A00001D1032700E00527B7402F43154D6646CA
:1007B00037662D684E689543F60200D51543114FF4
:1007C0003D607D68954300E014E04E68B60200D5B8
:1007D00015437D600B4D80356E684F689643BF03AF
:1007E00000D516436E602E684F689643FF0300D510
:1007F00016432E605B1C0A681546DA4000D05FE79E
:10080000F0BD000000180240000400500008005035
:10081000000C00500069084000D001207047002AF9
:1008200001D0816170478162704700000148806893
:10083000704700001800002002488168027889187B
:10084000816070471800002010B508480024016836
:10085000821511430160032000F00AF8002801D03E
:10086000012401E000F028F8204610BD00200240DD
:1008700070B50F4E002431780546002915D07D2033
:10088000C000FFF7ABFC01460A480068FFF7A6FC72
:1008900000F038F8002808D1042D06D2002229469D
:1008A000401E00F02BF8756000E00124204670BD6A
:1008B000180000202400002008B509480168012222
:1008C0001143016000681040009005484038C26B39
:1008D00001040A43C263C06B0840009008BD0000D9
:1008E00040100240002805DBC106C90E01208840E7
:1008F000014908607047000000E100E010B500F019
:10090000D3F910BD094910B5401E884201D9012014
:1009100010BD074C60610321081F00F0C5F90020DD
:10092000A06107202061002010BD0000FFFFFF0034
:1009300000E000E070B5040005D025462035687F52
:10094000002802D006E0012070BD00202877204654
:1009500000F016F802206877211D206800F034F9B5
:10096000012240342272AA77EA7722706270A27064
:10097000E27022716271A271E2716A77002070BD2B
:1009800008B500680549884207D105480268C913BF
:100990000A43026000680840009008BD0020004043
:1009A00040100240014620314A7F012A01D0012037
:1009B000704702224A770068094A0121904202D01A
:1009C000084A904207D18268074B1A40062A05D090
:1009D000DB1F9A4202D002680A430260002070477F
:1009E000002C0140000400400700010001680A6A71
:1009F000074B1A4207D10A6A9B101A4203D10A68B0
:100A0000520852000A6001212030417700207047CF
:100A100011110000FEE7000002480078012800D014
:100A20000020704704000020014908607047000062
:100A300024000020F0B587B014216846FFF7CCFBF6
:100A40002F48416B022631434163416B3140059190
:100A5000426B04210A434263426B0A400592416B98
:100A6000012529434163406B0022284005908021E5
:100A70002448FFF7D4FEEF03002239462248FFF74F
:100A8000CEFE0520002240210007FFF7C8FE80208F
:100A90000024009002946946019503941948FFF7D9
:100AA0000BFE029469461848009701950394FFF7DE
:100AB00003FE31200004019005206946009602944F
:100AC0000007FFF7F9FD102000900520019469460A
:100AD00002940007FFF7F0FD4020009005200294EB
:100AE0006946019503940007FFF7E6FD00221146D1
:100AF0000520FFF703FF0520FFF7F4FE07B0F0BD68
:100B0000001002400004005000080050FEE770474B
:100B10000249C000401800887047000000F8000833
:100B20007047000010B50548FFF760FF044900203A
:100B300048620248FFF736FF10BD00002800002081
:100B40000020004010B50448FFF750FF0348406AFA
:100B50004004000C10BD00002800002000200040D0
:100B600010B5FFF769FE00F0E1FA10BD10B51348AB
:100B7000016882151143016001684905C90FFBD066
:100B800081680F221202914381608168C908C900FF
:100B90008160382281681142FCD1816807221203EA
:100BA000914381600648FFF73FFF0320FFF760FE97
:100BB000002801D072B6FEE710BD00000010024010
:100BC0000024F4007047000070B50268174B184EFF
:100BD000984201D0B04203D17024A2434C68224312
:100BE000144C154D984208D0B04206D0134EB04276
:100BF00003D0A04201D0A84204D103263602B2435A
:100C0000CE6832438026B2434E69324302608A681E
:100C1000C2620A688262984203D0A04201D0A84210
:100C200001D1096901630121416170BD002C0140BE
:100C30000004004000440140004801400020004002
:100C4000F7B586B0022000901F20002602900120F8
:100C50000F46049601960390FFF7DAFC72B6012066
:100C60000F490005086104A96846FFF74FFC0024FE
:100C700025460CE006986100425A0A49E0004118F6
:100C800000230120FFF794FC0020641C4541284606
:100C9000E11BB041EED362B6FFF77CFC09B0F0BDBA
:100CA0000020024000F800088307FF22DB0E9A4074
:100CB0008907090E9940002808DB830809489B0032
:100CC0001B18186890430843186070470007000F0E
:100CD0000838830804489B001B18D86990430843D0
:100CE000D861704700E400E000ED00E0F8B50525AC
:100CF0002D07012240212846FFF791FD0122174FC1
:100D0000D60331463846FFF78AFD1548FFF7ECFB5E
:100D10000023144C1A465800225400195B1C4270E0
:100D20000A2BF8DB104900204300401CCA5214284B
:100D3000FADB002214210C48FFF782FF0022402139
:100D40002846FFF76CFD002280210848FFF767FD69
:100D5000002231463846FFF762FDF8BD000800501A
:100D6000B80B000074000020880000200004005030
:100D7000F0B5234E00232148B412FD2299004558B6
:100D800035404550455C15404554455C6D086D0047
:100D900045544558254045505B1C9BB20A2BEDD36A
:100DA0001648002128308B00C55C1540C554C55C31
:100DB0006D086D00C554C5582540C550491C89B201
:100DC0000A29F0D30D480F4F00235030FB26BD12E7
:100DD0009900445C3440445444583C404450445C82
:100DE000640864004454445C1440445444582C4007
:100DF00044505B1C9BB20A2BEAD3F0BDC800002014
:100E0000FF0FC0FFFF1F80FFFFF71EFDFFF7B0FFC2
:100E1000FFF7ACFEFFF70EFE2B482A4901602021A8
:100E200000242A4E021D52C204618461FFF782FD34
:100E3000002801D072B6FEE70520002240210007FD
:100E4000FFF7EDFC002280212148FFF7E8FC01219B
:100E50000022C9031F48FFF7E2FC7D20C000FFF716
:100E600043FB0020FFF754FE174D4C35B04215D11F
:100E7000002041006C544919401C4C700A28F8DBD2
:100E80001149002060314200401C8C521428FADBCA
:100E90000D48002214216030FFF7D2FE00267400B6
:100EA0002046FFF735FE2855601CFFF731FE61191B
:100EB000761C48700A2EF2DB00F062F80120FFF782
:100EC00013FBF9E70020004028000020FFFF00008E
:100ED0000004005000080050F8B5FFF79DFD002801
:100EE00040D02148FFF7E4FA00241F4D1F4E05278C
:100EF0003F076000315C2A78914227D18019407801
:100F00006978884222D1012240213846FFF787FCC8
:100F1000012280211648FFF782FC0122D1031548E7
:100F2000FFF77DFCFF20F530FFF7DEFA00224021BD
:100F30003846FFF774FC002280210D48FFF76FFC54
:100F400001210022C9030B48FFF769FC641C0A2C2D
:100F5000CFDB7D20C000FFF7C7FA074900200870EB
:100F600006490870F8BD0000000000207400002051
:100F700000040050000800500C0000200400002075
:100F8000F8B5604C022720785F4D00283AD1FFF772
:100F9000A3FF28793843287168685C490840052117
:100FA0004903401868602879C0072BD02879400889
:100FB00040002871564EA068B04201DA401CA06083
:100FC000052010210007FFF725FC012804D06068E8
:100FD000B04201DA401C00E000206060FF21A06800
:100FE0002D31884208DA6068322805DDFFF77EFE81
:100FF0000020A660606005E06068642802DB0120D4
:10100000207002E02078012876D1287838432870B3
:1010100028683E490840192189034018286028782B
:10102000C0070DD028784008400028706178012062
:10103000401AC2B20520627040210007FFF7EFFBA3
:10104000FFF7EAFC002857D03248FFF731FA0122B7
:10105000314ED50329463046FFF7E1FBFF20F5303E
:10106000FFF742FA0520002240210007FFF7D7FBD7
:10107000002280212948FFF7D2FB00222946304672
:10108000FFF7CDFB23480025027843782448294602
:101090004E00875D974204D1361876789E4200D183
:1010A0000125491C0A29F3DB002D1DD100214D002B
:1010B000465D002E03D12E187678002E1DD0491CD7
:1010C0000A29F4DB174A00214B00C65C8D005653F9
:1010D0001B18AD185B78491C6B800A29F4DB0022D1
:1010E00014211048FFF7ACFD7D200001FFF7FCF94B
:1010F00000200D4920700870F8BD4E008255291857
:101100004B70DFE70C000020C8000020FF0FC0FF7D
:1011100010270000000000200008005000040050CC
:10112000740000208800002004000020F8B500268C
:101130002B492C4A0127009600988300C85C800741
:1011400019D5581804682405A40D641CA405250DA0
:10115000046814402C430460CC58CB582405A40DDB
:101160009B029B0D9C420AD90368134003600378DD
:101170003B43037003E05818036813400360009872
:10118000401C00900A28D7DB1548009628300099AB
:101190008900435C9B0718D543581B059B0D0BD05A
:1011A00009180B680C681B059B0D5B1E9B051B0D2E
:1011B00014401C430C600CE009180B78FD242340FC
:1011C0000B700B783B430B7003E009180B6813405E
:1011D0000B600099491C00910A29D8DBF8BD00007A
:1011E000C800002003F0FFFF0812000800000020E4
:1011F0002800000004010008301200082800002028
:101200009807000020010008000000000000000016
:1012100000000000000000000000000000000000CE
:101220000100000004000000000000000024F400A1
:04000005080000C12E
:00000001FF
