:020000040800F2
:10000000D8060020550100082908000899070008B3
:1000100000000000000000000000000000000000E0
:100020000000000000000000000000002D08000893
:1000300000000000000000002B0800086D08000808
:100040006701000800000000670100086701000860
:1000500067010008670100089303000867010008B2
:100060000000000067010008670100086701000840
:100070006701000867010008670100080000000030
:100080006701000800000000000000006701000890
:100090000000000067010008670100086701000810
:1000A0000000000067010008000000006701000870
:1000B00000F002F800F03EF80CA030C80838241810
:1000C0002D18A246671EAB4654465D46AC4201D190
:1000D00000F030F87E460F3E0FCCB6460126334284
:1000E00000D0FB1AA246AB46334318471C09000058
:1000F0003C090000103A02D378C878C1FAD85207F8
:1001000001D330C830C101D504680C6070470000CD
:100110000023002400250026103A01D378C1FBD823
:10012000520700D330C100D50B6070471FB51FBD0B
:1001300010B510BD00F0FAF81146FFF7F7FF00F018
:1001400035FC00F012F903B4FFF7F2FF03BC00F036
:1001500019F900000748804707480047FEE7FEE717
:10016000FEE7FEE7FEE7FEE704480549054A064BC1
:1001700070470000ED080008B1000008D80000201A
:10018000D8060020D8020020D802002001E004C0D8
:10019000091F0429FBD28B0701D50280801CC907E7
:1001A00000D00270704700290BD0C30702D0027044
:1001B000401C491E022904D3830702D50280801CFB
:1001C000891EE3E70022EEE70022DFE700220309B1
:1001D0008B422CD3030A8B4211D300239C464EE062
:1001E00003460B433CD4002243088B4231D303091E
:1001F0008B421CD3030A8B4201D394463FE0C309D0
:100200008B4201D3CB01C01A524183098B4201D3E7
:100210008B01C01A524143098B4201D34B01C01AD2
:10022000524103098B4201D30B01C01A5241C3084A
:100230008B4201D3CB00C01A524183088B4201D3B9
:100240008B00C01A524143088B4201D34B00C01AA5
:100250005241411A00D201465241104670475DE0BA
:10026000CA0F00D04942031000D34042534000223D
:100270009C4603098B422DD3030A8B4212D3FC22E6
:10028000890112BA030A8B420CD3890192118B4265
:1002900008D3890192118B4204D389013AD092117B
:1002A00000E08909C3098B4201D3CB01C01A524136
:1002B00083098B4201D38B01C01A524143098B42FF
:1002C00001D34B01C01A524103098B4201D30B01E8
:1002D000C01A5241C3088B4201D3CB00C01A52410D
:1002E00083088B4201D38B00C01A5241D9D24308F4
:1002F0008B4201D34B00C01A5241411A00D2014631
:10030000634652415B10104601D34042002B00D59A
:100310004942704763465B1000D3404201B500205C
:10032000C046C04602BD704770477047754600F032
:1003300025F8AE46050069465346C008C00085460C
:1003400018B020B5FFF710FF60BC00274908B6467B
:100350000026C0C5C0C5C0C5C0C5C0C5C0C5C0C5D4
:10036000C0C5403D49008D46704710B50446C046A3
:10037000C0462046FFF7E7FE10BD0000004870476A
:100380007800002001491820ABBEFEE726000200DD
:10039000704710B5082000F071F810BDF0B50023CB
:1003A00083704370094D0370194607264A076C5C39
:1003B000520FB21A9440CA08875C491C3C43C9B228
:1003C00084541829F2D302480370F0BD6000002065
:1003D0000000002070B5044600F00CF90546601CD2
:1003E00002D004480078241800F004F9401BA04211
:1003F000FAD370BD1000002070B5082834D1082150
:100400001A4800F0EBF81A4C012803D000F020FA4B
:10041000A08027E000F01CFA6080A3880021C82B90
:100420001ED9144A90421BD21D225A4301258242F2
:1004300001D2E58016E0E288012A13D16278182AF9
:100440000AD25900814201D3012000E000200A496C
:100450008854521C627005E06170E180257001E0F3
:10046000E180617000F0E4F970BD00000004004814
:1004700000000020983A00006000002010B50449F8
:100480004A69024202D04861FFF7B6FF10BD000082
:1004900000040140F8B500238DE001249C40A446EF
:1004A00022407DD04C68022C01D0122C0CD1DC08EB
:1004B000A40027183C6A5D07ED0E0F26AE40B4433A
:1004C0000E69AE4026433E6205685E000324B440D8
:1004D0000F79A543BF07BF0FB7402F4307604D6893
:1004E000012D05D0022D03D0112D01D0122D0ED1DA
:1004F0008568CF68A543B7402F4387604768654646
:10050000AF430D79ED06ED0F9D403D434560C56855
:10051000A5438C68B4402C43C4604C68E40049D5C2
:10052000284CA56901263543A561A4699D0834407E
:100530000094254CAD002F19BC689D072E0F0F2588
:10054000B540AC430925ED06A84201D100250FE0D6
:100550001E4DA84201D101250AE01D4DA84201D13E
:10056000022505E01B4DA84201D1032500E0052529
:10057000B5402543BD60184C25684E689543F60389
:1005800000D51543256065684E689543B60300D5D0
:1005900015436560A5684E689543F60202D500E0F4
:1005A00008E01543A560E5684E689543B60200D59E
:1005B0001543E5605B1C0A681446DC4000D06CE71C
:1005C000F8BD000000100240000001400004004897
:1005D00000080048000C0048000401400069084081
:1005E00000D001207047002A01D0816170478162EC
:1005F000704700000148806870470000100000202C
:1006000002488168027889188160704710000020D4
:1006100010B506480168102211430160032000F064
:1006200007F800F027F8002010BD0000002002406D
:1006300070B504460D4D7D202978C000FFF7C6FD3A
:1006400001460B480068FFF7C1FD00F037F80028AD
:1006500009D1042C07D200222146401E00F02AF8BE
:1006600000206C6070BD012070BD000010000020F3
:100670001C00002008B508488169012211438161EE
:10068000816911400091C26901040A43C261C069D5
:100690000840009008BD000000100240002805DB63
:1006A000C106C90E0120884001490860704700005A
:1006B00000E100E010B500F057F910BD094910B590
:1006C000401E884201D9012010BD074C6061032102
:1006D000081F00F049F90020A061072020610020D8
:1006E00010BD0000FFFFFF0000E000E070B5040057
:1006F00005D025462035687F002802D006E001207D
:1007000070BD00202877204600F00AF802206877A4
:10071000211D206800F0ECF801206877002070BDF2
:1007200008B500680549884207D10548C2698115A6
:100730000A43C261C0690840009008BD0020004023
:10074000001002400222014620314A770068826888
:1007500001235207520F062A02D002681A43026090
:100760004B7700207047000002210246203251776B
:100770000168086A074B184207D1086A9B101842A3
:1007800003D108684008400008600120507700202D
:100790007047000011110000FEE7000001490860E9
:1007A000704700001C00002030B587B01421684657
:1007B000FFF70AFD19484269012149040A434261D1
:1007C00042690A400592426949000A434261406910
:1007D000134D08400590002280212846FFF703FFB3
:1007E000082000900F480124019069460294284691
:1007F000FFF750FE002180200291039100900194A8
:1008000069462846FFF746FE002211460620FFF7FC
:1008100051FF0620FFF742FF07B030BD0010024035
:100820000004004800003110FEE7704770470000E8
:1008300010B50548FFF798FF0449002048620248B8
:10084000FFF780FF10BD00002000002000200040C6
:1008500010B50448FFF788FF0348406A4004000CC5
:1008600010BD0000200000200020004010B5FFF760
:10087000C7FE10BD10B51A4801684908490001605B
:100880000168C907C90FFBD116480168012211434D
:10089000016001688907C90FFBD00168F822914304
:1008A0008022114301604168F02291434160416818
:1008B0000722120291434160416889088900416022
:1008C0000C2241681142FCD10748FFF767FF032063
:1008D000FFF7AEFE002801D072B6FEE710BD0000A3
:1008E000002002400010024000127A007047000011
:1008F00070B50268174B184E984201D0B04203D130
:100900007024A2434C682243144C154D984208D0E1
:10091000B04206D0134EB04203D0A04201D0A8424C
:1009200004D103263602B243CE6832438026B24356
:100930004E69324302608A68C2620A6882629842E3
:1009400003D0A04201D0A84201D10969016301216D
:10095000416170BD002C0140000400400044014092
:1009600000480140002000408307FF22DB0E9A4030
:100970008907090E9940002808DB830809489B0075
:100980001B18186890430843186070470007000F51
:100990000838830804489B001B18D8699043084313
:1009A000D861704700E400E000ED00E0FFF730FEA2
:1009B000FFF760FFFFF7F8FE10480F4901601021B4
:1009C0004160002181600E4A0161C2608161FFF7D0
:1009D0008DFE0C4C002801D072B6FEE7207801286D
:1009E00006D108480C30FFF7D9FCA068401CA06075
:1009F0000A20FFF7EFFCF1E7002000402000002074
:100A0000FFFF000000000020280A0008000000206E
:100A100020000000F4000008480A00082000002020
:100A2000B8060000100100080000000000000000EF
:100A300000000000000000000100000004000000B1
:080A40000000000000127A0022
:04000005080000B13E
:00000001FF
